{
  "_format": "hh-sol-artifact-1",
  "contractName": "DCFCalculator",
  "sourceName": "contracts/DCFCalculator.sol",
  "abi": [
    {
      "inputs": [
        {
          "internalType": "uint256",
          "name": "x",
          "type": "uint256"
        },
        {
          "internalType": "uint256",
          "name": "y",
          "type": "uint256"
        }
      ],
      "name": "PRBMath_MulDiv18_Overflow",
      "type": "error"
    },
    {
      "inputs": [
        {
          "internalType": "uint256",
          "name": "x",
          "type": "uint256"
        },
        {
          "internalType": "uint256",
          "name": "y",
          "type": "uint256"
        },
        {
          "internalType": "uint256",
          "name": "denominator",
          "type": "uint256"
        }
      ],
      "name": "PRBMath_MulDiv_Overflow",
      "type": "error"
    },
    {
      "inputs": [
        {
          "internalType": "uint256",
          "name": "x",
          "type": "uint256"
        }
      ],
      "name": "PRBMath_UD60x18_Convert_Overflow",
      "type": "error"
    },
    {
      "inputs": [
        {
          "internalType": "UD60x18",
          "name": "x",
          "type": "uint256"
        }
      ],
      "name": "PRBMath_UD60x18_Exp2_InputTooBig",
      "type": "error"
    },
    {
      "inputs": [
        {
          "internalType": "UD60x18",
          "name": "x",
          "type": "uint256"
        }
      ],
      "name": "PRBMath_UD60x18_Log_InputTooSmall",
      "type": "error"
    },
    {
      "inputs": [
        {
          "internalType": "uint256[5]",
          "name": "cashFlows",
          "type": "uint256[5]"
        },
        {
          "internalType": "UD60x18",
          "name": "survivalRate",
          "type": "uint256"
        },
        {
          "internalType": "UD60x18",
          "name": "growthRate",
          "type": "uint256"
        }
      ],
      "name": "calculate",
      "outputs": [
        {
          "internalType": "UD60x18",
          "name": "result",
          "type": "uint256"
        }
      ],
      "stateMutability": "pure",
      "type": "function"
    }
  ],
  "bytecode": "0x608060405234801561001057600080fd5b506115c7806100206000396000f3fe608060405234801561001057600080fd5b506004361061002b5760003560e01c8063b3004ba614610030575b600080fd5b61004a600480360381019061004591906112ce565b610060565b604051610057919061135c565b60405180910390f35b60008061006b61011d565b90506000805b60058110156100ca57600061009f88836005811061009257610091611377565b5b602002013583868a610135565b90506100b481846101d390919063ffffffff16565b92505080806100c2906113d5565b915050610071565b5061010f61010087600160056100e0919061141d565b600581106100f1576100f0611377565b5b60200201356005858989610201565b826101d390919063ffffffff16565b905080925050509392505050565b600061013067010e0198eaee00006102dc565b905090565b60008061015383610145886102ee565b61037a90919063ffffffff16565b90506000610172670de0b6b3a7640000866101d390919063ffffffff16565b905060006101996706f05b59d3b2000061018b896102ee565b6101d390919063ffffffff16565b905060006101b082846103a690919063ffffffff16565b90506101c5818561042690919063ffffffff16565b945050505050949350505050565b60006101f96101e18361045b565b6101ea8561045b565b6101f49190611451565b610465565b905092915050565b60008061021f670de0b6b3a7640000846101d390919063ffffffff16565b9050600061025082610242876102348c6102ee565b61037a90919063ffffffff16565b61037a90919063ffffffff16565b90506000610267858861046f90919063ffffffff16565b9050600061027e828461042690919063ffffffff16565b9050600061029d670de0b6b3a76400008a6101d390919063ffffffff16565b90506102cc6102bd6102ae8c6102ee565b836103a690919063ffffffff16565b8361042690919063ffffffff16565b9550505050505095945050505050565b60006102e782610465565b9050919050565b6000670de0b6b3a76400007fffffffffffffffffffffffffffffffffffffffffffffffffffffffffffffffff61032491906114d6565b82111561036857816040517f1cd951a700000000000000000000000000000000000000000000000000000000815260040161035f9190611516565b60405180910390fd5b670de0b6b3a764000082029050919050565b600061039e61039961038b8561045b565b6103948561045b565b61049d565b610465565b905092915050565b6000806103b28461045b565b905060006103bf8461045b565b9050600082036103e957600081146103d85760006103e2565b670de0b6b3a76400005b925061041e565b670de0b6b3a764000081036104005784925061041d565b61041a61041561040f87610588565b8661037a565b6106ba565b92505b5b505092915050565b600061045361044e6104378561045b565b670de0b6b3a76400006104498661045b565b61074b565b610465565b905092915050565b6000819050919050565b6000819050919050565b600061049561047d8361045b565b6104868561045b565b610490919061141d565b610465565b905092915050565b60008060008019848609848602925082811083820303915050670de0b6b3a764000081106105045784846040517f5173648d0000000000000000000000000000000000000000000000000000000081526004016104fb929190611531565b60405180910390fd5b6000670de0b6b3a764000085870990506000820361053f57670de0b6b3a76400008381610534576105336114a7565b5b049350505050610582565b7faccb18165bd6fe31ae1cf318dc5b51eee0e1ba569b88cd74c1773b91fac106696001620400008060000304018483118403026204000083860304170293505050505b92915050565b6000806105948361045b565b9050670de0b6b3a76400008110156105e357826040517f36d32ef00000000000000000000000000000000000000000000000000000000081526004016105da919061135c565b60405180910390fd5b6000610606670de0b6b3a76400008381610600576105ff6114a7565b5b04610862565b90506000670de0b6b3a76400008202905060008284901c9050670de0b6b3a764000081036106425761063782610465565b9450505050506106b5565b6000671bc16d674ec80000905060006706f05b59d3b2000090505b60008111156106a357670de0b6b3a7640000838402816106805761067f6114a7565b5b049250818310610697578084019350600183901c92505b600181901c905061065d565b506106ad83610465565b955050505050505b919050565b6000806106c68361045b565b9050680a688906bd8b000000811061071557826040517fb3b6ba1f00000000000000000000000000000000000000000000000000000000815260040161070c919061135c565b60405180910390fd5b6000670de0b6b3a7640000604083901b61072f91906114d6565b905061074261073d8261090b565b610465565b92505050919050565b60008060008019858709858702925082811083820303915050600081036107865783828161077c5761077b6114a7565b5b049250505061085b565b8381106107ce578585856040517f63a057780000000000000000000000000000000000000000000000000000000081526004016107c59392919061155a565b60405180910390fd5b60008486880990508281118203915080830392506000600186190186169050808604955080840493506001818260000304019050808302841793506000600287600302189050808702600203810290508087026002038102905080870260020381029050808702600203810290508087026002038102905080870260020381029050808502955050505050505b9392505050565b60006fffffffffffffffffffffffffffffffff821160071b82811c925080821791505067ffffffffffffffff821160061b82811c925080821791505063ffffffff821160051b82811c925080821791505061ffff821160041b82811c925080821791505060ff821160031b82811c9250808217915050600f821160021b82811c92508082179150506003821160011b82811c925080821791505060018211808217915050919050565b6000778000000000000000000000000000000000000000000000009050600067ff0000000000000083161115610a6c5760006780000000000000008316111561096157604068016a09e667f3bcc9098202901c90505b6000674000000000000000831611156109875760406801306fe0a31b7152df8202901c90505b6000672000000000000000831611156109ad5760406801172b83c7d517adce8202901c90505b6000671000000000000000831611156109d357604068010b5586cf9890f62a8202901c90505b6000670800000000000000831611156109f95760406801059b0d31585743ae8202901c90505b600067040000000000000083161115610a1f576040680102c9a3e778060ee78202901c90505b600067020000000000000083161115610a4557604068010163da9fb33356d88202901c90505b600067010000000000000083161115610a6b576040680100b1afa5abcbed618202901c90505b5b600066ff00000000000083161115610ba7576000668000000000000083161115610aa357604068010058c86da1c09ea28202901c90505b6000664000000000000083161115610ac85760406801002c605e2e8cec508202901c90505b6000662000000000000083161115610aed576040680100162f3904051fa18202901c90505b6000661000000000000083161115610b125760406801000b175effdc76ba8202901c90505b6000660800000000000083161115610b37576040680100058ba01fb9f96d8202901c90505b6000660400000000000083161115610b5c57604068010002c5cc37da94928202901c90505b6000660200000000000083161115610b815760406801000162e525ee05478202901c90505b6000660100000000000083161115610ba657604068010000b17255775c048202901c90505b5b600065ff000000000083161115610cd95760006580000000000083161115610bdc5760406801000058b91b5bc9ae8202901c90505b60006540000000000083161115610c00576040680100002c5c89d5ec6d8202901c90505b60006520000000000083161115610c2457604068010000162e43f4f8318202901c90505b60006510000000000083161115610c48576040680100000b1721bcfc9a8202901c90505b60006508000000000083161115610c6c57604068010000058b90cf1e6e8202901c90505b60006504000000000083161115610c905760406801000002c5c863b73f8202901c90505b60006502000000000083161115610cb4576040680100000162e430e5a28202901c90505b60006501000000000083161115610cd85760406801000000b1721835518202901c90505b5b600064ff0000000083161115610e0257600064800000000083161115610d0c576040680100000058b90c0b498202901c90505b600064400000000083161115610d2f57604068010000002c5c8601cc8202901c90505b600064200000000083161115610d525760406801000000162e42fff08202901c90505b600064100000000083161115610d7557604068010000000b17217fbb8202901c90505b600064080000000083161115610d985760406801000000058b90bfce8202901c90505b600064040000000083161115610dbb576040680100000002c5c85fe38202901c90505b600064020000000083161115610dde57604068010000000162e42ff18202901c90505b600064010000000083161115610e01576040680100000000b17217f88202901c90505b5b600064ff0000000083161115610f23576000638000000083161115610e3457604068010000000058b90bfc8202901c90505b6000634000000083161115610e565760406801000000002c5c85fe8202901c90505b6000632000000083161115610e78576040680100000000162e42ff8202901c90505b6000631000000083161115610e9a5760406801000000000b17217f8202901c90505b6000630800000083161115610ebc576040680100000000058b90c08202901c90505b6000630400000083161115610ede57604068010000000002c5c8608202901c90505b6000630200000083161115610f005760406801000000000162e4308202901c90505b6000630100000083161115610f2257604068010000000000b172188202901c90505b5b600062ff00008316111561103a5760006280000083161115610f525760406801000000000058b90c8202901c90505b60006240000083161115610f73576040680100000000002c5c868202901c90505b60006220000083161115610f9457604068010000000000162e438202901c90505b60006210000083161115610fb5576040680100000000000b17218202901c90505b60006208000083161115610fd657604068010000000000058b918202901c90505b60006204000083161115610ff75760406801000000000002c5c88202901c90505b60006202000083161115611018576040680100000000000162e48202901c90505b600062010000831611156110395760406801000000000000b1728202901c90505b5b600061ff008316111561114857600061800083161115611067576040680100000000000058b98202901c90505b60006140008316111561108757604068010000000000002c5d8202901c90505b6000612000831611156110a75760406801000000000000162e8202901c90505b6000611000831611156110c757604068010000000000000b178202901c90505b6000610800831611156110e75760406801000000000000058c8202901c90505b600061040083161115611107576040680100000000000002c68202901c90505b600061020083161115611127576040680100000000000001638202901c90505b600061010083161115611147576040680100000000000000b18202901c90505b5b600060ff8316111561124d576000608083161115611173576040680100000000000000598202901c90505b60006040831611156111925760406801000000000000002c8202901c90505b60006020831611156111b1576040680100000000000000168202901c90505b60006010831611156111d05760406801000000000000000b8202901c90505b60006008831611156111ef576040680100000000000000068202901c90505b600060048316111561120e576040680100000000000000038202901c90505b600060028316111561122d576040680100000000000000018202901c90505b600060018316111561124c576040680100000000000000018202901c90505b5b670de0b6b3a764000081029050604082901c60bf0381901c9050919050565b600080fd5b600080fd5b60008190508260206005028201111561129257611291611271565b5b92915050565b6000819050919050565b6112ab81611298565b81146112b657600080fd5b50565b6000813590506112c8816112a2565b92915050565b600080600060e084860312156112e7576112e661126c565b5b60006112f586828701611276565b93505060a0611306868287016112b9565b92505060c0611317868287016112b9565b9150509250925092565b6000819050919050565b600061134661134161133c84611298565b611321565b611298565b9050919050565b6113568161132b565b82525050565b6000602082019050611371600083018461134d565b92915050565b7f4e487b7100000000000000000000000000000000000000000000000000000000600052603260045260246000fd5b7f4e487b7100000000000000000000000000000000000000000000000000000000600052601160045260246000fd5b60006113e082611298565b91507fffffffffffffffffffffffffffffffffffffffffffffffffffffffffffffffff8203611412576114116113a6565b5b600182019050919050565b600061142882611298565b915061143383611298565b925082821015611446576114456113a6565b5b828203905092915050565b600061145c82611298565b915061146783611298565b9250827fffffffffffffffffffffffffffffffffffffffffffffffffffffffffffffffff0382111561149c5761149b6113a6565b5b828201905092915050565b7f4e487b7100000000000000000000000000000000000000000000000000000000600052601260045260246000fd5b60006114e182611298565b91506114ec83611298565b9250826114fc576114fb6114a7565b5b828204905092915050565b61151081611298565b82525050565b600060208201905061152b6000830184611507565b92915050565b60006040820190506115466000830185611507565b6115536020830184611507565b9392505050565b600060608201905061156f6000830186611507565b61157c6020830185611507565b6115896040830184611507565b94935050505056fea26469706673582212204f6558c31b107a02040057245a6ae287b233ecf6847b5dd2f12d55ad3d338fce64736f6c634300080d0033",
  "linkReferences": {},
  "deployedLinkReferences": {}
}