{
  "_format": "hh-sol-artifact-1",
  "contractName": "DCFCalculator",
  "sourceName": "contracts/DCFCalculator.sol",
  "abi": [
    {
      "inputs": [
        {
          "internalType": "uint256",
          "name": "x",
          "type": "uint256"
        },
        {
          "internalType": "uint256",
          "name": "y",
          "type": "uint256"
        }
      ],
      "name": "PRBMath_MulDiv18_Overflow",
      "type": "error"
    },
    {
      "inputs": [
        {
          "internalType": "uint256",
          "name": "x",
          "type": "uint256"
        },
        {
          "internalType": "uint256",
          "name": "y",
          "type": "uint256"
        },
        {
          "internalType": "uint256",
          "name": "denominator",
          "type": "uint256"
        }
      ],
      "name": "PRBMath_MulDiv_Overflow",
      "type": "error"
    },
    {
      "inputs": [
        {
          "internalType": "UD60x18",
          "name": "x",
          "type": "uint256"
        }
      ],
      "name": "PRBMath_UD60x18_Exp2_InputTooBig",
      "type": "error"
    },
    {
      "inputs": [
        {
          "internalType": "UD60x18",
          "name": "x",
          "type": "uint256"
        }
      ],
      "name": "PRBMath_UD60x18_Log_InputTooSmall",
      "type": "error"
    },
    {
      "inputs": [
        {
          "internalType": "uint256[5]",
          "name": "cashFlows",
          "type": "uint256[5]"
        }
      ],
      "name": "calculate",
      "outputs": [
        {
          "internalType": "UD60x18",
          "name": "result",
          "type": "uint256"
        }
      ],
      "stateMutability": "view",
      "type": "function"
    }
  ],
  "bytecode": "0x608060405261001b670d2f13f7789f000061003060201b60201c565b60005534801561002a57600080fd5b50610052565b60006100418261004860201b60201c565b9050919050565b6000819050919050565b611330806100616000396000f3fe608060405234801561001057600080fd5b506004361061002b5760003560e01c8063ed299e0414610030575b600080fd5b61004a600480360381019061004591906110a2565b610060565b6040516100579190611114565b60405180910390f35b60008061006b6100e7565b9050600061007960006100f8565b905060005b60058110156100dc576100c76100b88683600581106100a05761009f61112f565b5b60200201356001846100b2919061118d565b8661010a565b8361018490919063ffffffff16565b915080806100d4906111e3565b91505061007e565b508092505050919050565b60006100f360026100f8565b905090565b6000610103826101b2565b9050919050565b60008061012a60005461011c876100f8565b6101bc90919063ffffffff16565b9050600061016461013a866100f8565b6101568661014860016100f8565b61018490919063ffffffff16565b6101e890919063ffffffff16565b9050610179818361026890919063ffffffff16565b925050509392505050565b60006101aa6101928361029d565b61019b8561029d565b6101a5919061118d565b6101b2565b905092915050565b6000819050919050565b60006101e06101db6101cd8561029d565b6101d68561029d565b6102a7565b6101b2565b905092915050565b6000806101f48461029d565b905060006102018461029d565b90506000820361022b576000811461021a576000610224565b670de0b6b3a76400005b9250610260565b670de0b6b3a764000081036102425784925061025f565b61025c61025761025187610392565b866101bc565b6104c4565b92505b5b505092915050565b60006102956102906102798561029d565b670de0b6b3a764000061028b8661029d565b610555565b6101b2565b905092915050565b6000819050919050565b60008060008019848609848602925082811083820303915050670de0b6b3a7640000811061030e5784846040517f5173648d00000000000000000000000000000000000000000000000000000000815260040161030592919061123a565b60405180910390fd5b6000670de0b6b3a764000085870990506000820361034957670de0b6b3a7640000838161033e5761033d611263565b5b04935050505061038c565b7faccb18165bd6fe31ae1cf318dc5b51eee0e1ba569b88cd74c1773b91fac106696001620400008060000304018483118403026204000083860304170293505050505b92915050565b60008061039e8361029d565b9050670de0b6b3a76400008110156103ed57826040517f36d32ef00000000000000000000000000000000000000000000000000000000081526004016103e49190611114565b60405180910390fd5b6000610410670de0b6b3a7640000838161040a57610409611263565b5b0461066c565b90506000670de0b6b3a76400008202905060008284901c9050670de0b6b3a7640000810361044c57610441826101b2565b9450505050506104bf565b6000671bc16d674ec80000905060006706f05b59d3b2000090505b60008111156104ad57670de0b6b3a76400008384028161048a57610489611263565b5b0492508183106104a1578084019350600183901c92505b600181901c9050610467565b506104b7836101b2565b955050505050505b919050565b6000806104d08361029d565b9050680a688906bd8b000000811061051f57826040517fb3b6ba1f0000000000000000000000000000000000000000000000000000000081526004016105169190611114565b60405180910390fd5b6000670de0b6b3a7640000604083901b6105399190611292565b905061054c61054782610715565b6101b2565b92505050919050565b60008060008019858709858702925082811083820303915050600081036105905783828161058657610585611263565b5b0492505050610665565b8381106105d8578585856040517f63a057780000000000000000000000000000000000000000000000000000000081526004016105cf939291906112c3565b60405180910390fd5b60008486880990508281118203915080830392506000600186190186169050808604955080840493506001818260000304019050808302841793506000600287600302189050808702600203810290508087026002038102905080870260020381029050808702600203810290508087026002038102905080870260020381029050808502955050505050505b9392505050565b60006fffffffffffffffffffffffffffffffff821160071b82811c925080821791505067ffffffffffffffff821160061b82811c925080821791505063ffffffff821160051b82811c925080821791505061ffff821160041b82811c925080821791505060ff821160031b82811c9250808217915050600f821160021b82811c92508082179150506003821160011b82811c925080821791505060018211808217915050919050565b6000778000000000000000000000000000000000000000000000009050600067ff00000000000000831611156108765760006780000000000000008316111561076b57604068016a09e667f3bcc9098202901c90505b6000674000000000000000831611156107915760406801306fe0a31b7152df8202901c90505b6000672000000000000000831611156107b75760406801172b83c7d517adce8202901c90505b6000671000000000000000831611156107dd57604068010b5586cf9890f62a8202901c90505b6000670800000000000000831611156108035760406801059b0d31585743ae8202901c90505b600067040000000000000083161115610829576040680102c9a3e778060ee78202901c90505b60006702000000000000008316111561084f57604068010163da9fb33356d88202901c90505b600067010000000000000083161115610875576040680100b1afa5abcbed618202901c90505b5b600066ff000000000000831611156109b15760006680000000000000831611156108ad57604068010058c86da1c09ea28202901c90505b60006640000000000000831611156108d25760406801002c605e2e8cec508202901c90505b60006620000000000000831611156108f7576040680100162f3904051fa18202901c90505b600066100000000000008316111561091c5760406801000b175effdc76ba8202901c90505b6000660800000000000083161115610941576040680100058ba01fb9f96d8202901c90505b600066040000000000008316111561096657604068010002c5cc37da94928202901c90505b600066020000000000008316111561098b5760406801000162e525ee05478202901c90505b60006601000000000000831611156109b057604068010000b17255775c048202901c90505b5b600065ff000000000083161115610ae357600065800000000000831611156109e65760406801000058b91b5bc9ae8202901c90505b60006540000000000083161115610a0a576040680100002c5c89d5ec6d8202901c90505b60006520000000000083161115610a2e57604068010000162e43f4f8318202901c90505b60006510000000000083161115610a52576040680100000b1721bcfc9a8202901c90505b60006508000000000083161115610a7657604068010000058b90cf1e6e8202901c90505b60006504000000000083161115610a9a5760406801000002c5c863b73f8202901c90505b60006502000000000083161115610abe576040680100000162e430e5a28202901c90505b60006501000000000083161115610ae25760406801000000b1721835518202901c90505b5b600064ff0000000083161115610c0c57600064800000000083161115610b16576040680100000058b90c0b498202901c90505b600064400000000083161115610b3957604068010000002c5c8601cc8202901c90505b600064200000000083161115610b5c5760406801000000162e42fff08202901c90505b600064100000000083161115610b7f57604068010000000b17217fbb8202901c90505b600064080000000083161115610ba25760406801000000058b90bfce8202901c90505b600064040000000083161115610bc5576040680100000002c5c85fe38202901c90505b600064020000000083161115610be857604068010000000162e42ff18202901c90505b600064010000000083161115610c0b576040680100000000b17217f88202901c90505b5b600064ff0000000083161115610d2d576000638000000083161115610c3e57604068010000000058b90bfc8202901c90505b6000634000000083161115610c605760406801000000002c5c85fe8202901c90505b6000632000000083161115610c82576040680100000000162e42ff8202901c90505b6000631000000083161115610ca45760406801000000000b17217f8202901c90505b6000630800000083161115610cc6576040680100000000058b90c08202901c90505b6000630400000083161115610ce857604068010000000002c5c8608202901c90505b6000630200000083161115610d0a5760406801000000000162e4308202901c90505b6000630100000083161115610d2c57604068010000000000b172188202901c90505b5b600062ff000083161115610e445760006280000083161115610d5c5760406801000000000058b90c8202901c90505b60006240000083161115610d7d576040680100000000002c5c868202901c90505b60006220000083161115610d9e57604068010000000000162e438202901c90505b60006210000083161115610dbf576040680100000000000b17218202901c90505b60006208000083161115610de057604068010000000000058b918202901c90505b60006204000083161115610e015760406801000000000002c5c88202901c90505b60006202000083161115610e22576040680100000000000162e48202901c90505b60006201000083161115610e435760406801000000000000b1728202901c90505b5b600061ff0083161115610f5257600061800083161115610e71576040680100000000000058b98202901c90505b600061400083161115610e9157604068010000000000002c5d8202901c90505b600061200083161115610eb15760406801000000000000162e8202901c90505b600061100083161115610ed157604068010000000000000b178202901c90505b600061080083161115610ef15760406801000000000000058c8202901c90505b600061040083161115610f11576040680100000000000002c68202901c90505b600061020083161115610f31576040680100000000000001638202901c90505b600061010083161115610f51576040680100000000000000b18202901c90505b5b600060ff83161115611057576000608083161115610f7d576040680100000000000000598202901c90505b6000604083161115610f9c5760406801000000000000002c8202901c90505b6000602083161115610fbb576040680100000000000000168202901c90505b6000601083161115610fda5760406801000000000000000b8202901c90505b6000600883161115610ff9576040680100000000000000068202901c90505b6000600483161115611018576040680100000000000000038202901c90505b6000600283161115611037576040680100000000000000018202901c90505b6000600183161115611056576040680100000000000000018202901c90505b5b670de0b6b3a764000081029050604082901c60bf0381901c9050919050565b600080fd5b600080fd5b60008190508260206005028201111561109c5761109b61107b565b5b92915050565b600060a082840312156110b8576110b7611076565b5b60006110c684828501611080565b91505092915050565b6000819050919050565b6000819050919050565b60006110fe6110f96110f4846110cf565b6110d9565b6110cf565b9050919050565b61110e816110e3565b82525050565b60006020820190506111296000830184611105565b92915050565b7f4e487b7100000000000000000000000000000000000000000000000000000000600052603260045260246000fd5b7f4e487b7100000000000000000000000000000000000000000000000000000000600052601160045260246000fd5b6000611198826110cf565b91506111a3836110cf565b9250827fffffffffffffffffffffffffffffffffffffffffffffffffffffffffffffffff038211156111d8576111d761115e565b5b828201905092915050565b60006111ee826110cf565b91507fffffffffffffffffffffffffffffffffffffffffffffffffffffffffffffffff82036112205761121f61115e565b5b600182019050919050565b611234816110cf565b82525050565b600060408201905061124f600083018561122b565b61125c602083018461122b565b9392505050565b7f4e487b7100000000000000000000000000000000000000000000000000000000600052601260045260246000fd5b600061129d826110cf565b91506112a8836110cf565b9250826112b8576112b7611263565b5b828204905092915050565b60006060820190506112d8600083018661122b565b6112e5602083018561122b565b6112f2604083018461122b565b94935050505056fea26469706673582212204e443b11841bc644678074535865e5a23419055000cbeb14eec6360a4d0d8c4164736f6c634300080d0033",
  "linkReferences": {},
  "deployedLinkReferences": {}
}