{
  "_format": "hh-sol-artifact-1",
  "contractName": "DCFCalculator",
  "sourceName": "contracts/DCFCalculator.sol",
  "abi": [
    {
      "inputs": [
        {
          "internalType": "uint256[5]",
          "name": "cashFlows",
          "type": "uint256[5]"
        }
      ],
      "name": "calculate",
      "outputs": [
        {
          "internalType": "UD60x18",
          "name": "result",
          "type": "uint256"
        }
      ],
      "stateMutability": "view",
      "type": "function"
    },
    {
      "inputs": [],
      "name": "dcfComponentCalculator",
      "outputs": [
        {
          "internalType": "contract DCFComponentCalculator",
          "name": "",
          "type": "address"
        }
      ],
      "stateMutability": "view",
      "type": "function"
    },
    {
      "inputs": [],
      "name": "waccCalculator",
      "outputs": [
        {
          "internalType": "contract WACCCalculator",
          "name": "",
          "type": "address"
        }
      ],
      "stateMutability": "view",
      "type": "function"
    }
  ],
  "bytecode": "0x608060405234801561001057600080fd5b50610649806100206000396000f3fe608060405234801561001057600080fd5b50600436106100415760003560e01c806313440dfd146100465780633edc1ac014610064578063ed299e0414610082575b600080fd5b61004e6100b2565b60405161005b9190610372565b60405180910390f35b61006c6100d8565b60405161007991906103ae565b60405180910390f35b61009c600480360381019061009791906103f5565b6100fc565b6040516100a9919061045d565b60405180910390f35b600160009054906101000a900473ffffffffffffffffffffffffffffffffffffffff1681565b60008054906101000a900473ffffffffffffffffffffffffffffffffffffffff1681565b60008060008054906101000a900473ffffffffffffffffffffffffffffffffffffffff1673ffffffffffffffffffffffffffffffffffffffff1663ca77ab656040518163ffffffff1660e01b8152600401602060405180830381865afa15801561016a573d6000803e3d6000fd5b505050506040513d601f19601f8201168201806040525081019061018e91906104a4565b9050600061019c600061029f565b905060005b60058110156102945761027f600160009054906101000a900473ffffffffffffffffffffffffffffffffffffffff1673ffffffffffffffffffffffffffffffffffffffff1663e97cf8838784600581106101fe576101fd6104d1565b5b6020020135600185610210919061052f565b876040518463ffffffff1660e01b815260040161022f93929190610594565b602060405180830381865afa15801561024c573d6000803e3d6000fd5b505050506040513d601f19601f8201168201806040525081019061027091906104a4565b836102b190919063ffffffff16565b9150808061028c906105cb565b9150506101a1565b508092505050919050565b60006102aa826102df565b9050919050565b60006102d76102bf836102e9565b6102c8856102e9565b6102d2919061052f565b6102df565b905092915050565b6000819050919050565b6000819050919050565b600073ffffffffffffffffffffffffffffffffffffffff82169050919050565b6000819050919050565b600061033861033361032e846102f3565b610313565b6102f3565b9050919050565b600061034a8261031d565b9050919050565b600061035c8261033f565b9050919050565b61036c81610351565b82525050565b60006020820190506103876000830184610363565b92915050565b60006103988261033f565b9050919050565b6103a88161038d565b82525050565b60006020820190506103c3600083018461039f565b92915050565b600080fd5b600080fd5b6000819050826020600502820111156103ef576103ee6103ce565b5b92915050565b600060a0828403121561040b5761040a6103c9565b5b6000610419848285016103d3565b91505092915050565b6000819050919050565b600061044761044261043d84610422565b610313565b610422565b9050919050565b6104578161042c565b82525050565b6000602082019050610472600083018461044e565b92915050565b61048181610422565b811461048c57600080fd5b50565b60008151905061049e81610478565b92915050565b6000602082840312156104ba576104b96103c9565b5b60006104c88482850161048f565b91505092915050565b7f4e487b7100000000000000000000000000000000000000000000000000000000600052603260045260246000fd5b7f4e487b7100000000000000000000000000000000000000000000000000000000600052601160045260246000fd5b600061053a82610422565b915061054583610422565b9250827fffffffffffffffffffffffffffffffffffffffffffffffffffffffffffffffff0382111561057a57610579610500565b5b828201905092915050565b61058e81610422565b82525050565b60006060820190506105a96000830186610585565b6105b66020830185610585565b6105c3604083018461044e565b949350505050565b60006105d682610422565b91507fffffffffffffffffffffffffffffffffffffffffffffffffffffffffffffffff820361060857610607610500565b5b60018201905091905056fea2646970667358221220937e1ecbb1f03c3d3e79fc36360ba49908a48942513fcb6768eb7bf8dc9079cc64736f6c634300080d0033",
  "linkReferences": {},
  "deployedLinkReferences": {}
}