{
  "_format": "hh-sol-artifact-1",
  "contractName": "WACCCalculator",
  "sourceName": "contracts/WACCCalculator.sol",
  "abi": [
    {
      "inputs": [
        {
          "internalType": "uint256",
          "name": "x",
          "type": "uint256"
        },
        {
          "internalType": "uint256",
          "name": "y",
          "type": "uint256"
        }
      ],
      "name": "PRBMath_MulDiv18_Overflow",
      "type": "error"
    },
    {
      "inputs": [
        {
          "internalType": "UD60x18",
          "name": "x",
          "type": "uint256"
        }
      ],
      "name": "calculate",
      "outputs": [
        {
          "internalType": "UD60x18",
          "name": "result",
          "type": "uint256"
        }
      ],
      "stateMutability": "view",
      "type": "function"
    },
    {
      "inputs": [],
      "name": "returnFloatValue",
      "outputs": [
        {
          "internalType": "UD60x18",
          "name": "result",
          "type": "uint256"
        }
      ],
      "stateMutability": "pure",
      "type": "function"
    },
    {
      "inputs": [],
      "name": "returnValue",
      "outputs": [
        {
          "internalType": "uint256",
          "name": "result",
          "type": "uint256"
        }
      ],
      "stateMutability": "pure",
      "type": "function"
    }
  ],
  "bytecode": "0x608060405234801561001057600080fd5b506103b5806100206000396000f3fe608060405234801561001057600080fd5b50600436106100415760003560e01c806384afad3614610046578063990c8f7914610064578063b9d92de814610082575b600080fd5b61004e6100b2565b60405161005b9190610284565b60405180910390f35b61006c6100c9565b60405161007991906102ae565b60405180910390f35b61009c600480360381019061009791906102fa565b6100d2565b6040516100a99190610284565b60405180910390f35b60006100c466b1a2bc2ec50000610102565b905090565b6000607b905090565b6000806100e566b1a2bc2ec50000610102565b90506100fa818461011490919063ffffffff16565b915050919050565b600061010d82610140565b9050919050565b60006101386101336101258561014a565b61012e8561014a565b610154565b610140565b905092915050565b6000819050919050565b6000819050919050565b60008060008019848609848602925082811083820303915050670de0b6b3a764000081106101bb5784846040517f5173648d0000000000000000000000000000000000000000000000000000000081526004016101b2929190610327565b60405180910390fd5b6000670de0b6b3a76400008587099050600082036101f657670de0b6b3a764000083816101eb576101ea610350565b5b049350505050610239565b7faccb18165bd6fe31ae1cf318dc5b51eee0e1ba569b88cd74c1773b91fac106696001620400008060000304018483118403026204000083860304170293505050505b92915050565b6000819050919050565b6000819050919050565b600061026e6102696102648461023f565b610249565b61023f565b9050919050565b61027e81610253565b82525050565b60006020820190506102996000830184610275565b92915050565b6102a88161023f565b82525050565b60006020820190506102c3600083018461029f565b92915050565b600080fd5b6102d78161023f565b81146102e257600080fd5b50565b6000813590506102f4816102ce565b92915050565b6000602082840312156103105761030f6102c9565b5b600061031e848285016102e5565b91505092915050565b600060408201905061033c600083018561029f565b610349602083018461029f565b9392505050565b7f4e487b7100000000000000000000000000000000000000000000000000000000600052601260045260246000fdfea26469706673582212202a8f1430b2b20433f09823a2ecd494594514a2b2f22950c55dbef417f408629464736f6c634300080d0033",
  "linkReferences": {},
  "deployedLinkReferences": {}
}